{
  "_format": "hh-sol-artifact-1",
  "contractName": "CryptoTip",
  "sourceName": "contracts/CryptoTip.sol",
  "abi": [
    {
      "anonymous": false,
      "inputs": [
        {
          "indexed": false,
          "internalType": "uint8",
          "name": "version",
          "type": "uint8"
        }
      ],
      "name": "Initialized",
      "type": "event"
    },
    {
      "anonymous": false,
      "inputs": [
        {
          "indexed": true,
          "internalType": "address",
          "name": "previousOwner",
          "type": "address"
        },
        {
          "indexed": true,
          "internalType": "address",
          "name": "newOwner",
          "type": "address"
        }
      ],
      "name": "OwnershipTransferred",
      "type": "event"
    },
    {
      "anonymous": false,
      "inputs": [
        {
          "indexed": false,
          "internalType": "address payable[]",
          "name": "teamMembers",
          "type": "address[]"
        },
        {
          "indexed": false,
          "internalType": "uint256",
          "name": "amount",
          "type": "uint256"
        }
      ],
      "name": "TipsPushed",
      "type": "event"
    },
    {
      "anonymous": false,
      "inputs": [
        {
          "indexed": false,
          "internalType": "address payable[]",
          "name": "teamMembers",
          "type": "address[]"
        },
        {
          "indexed": false,
          "internalType": "uint256",
          "name": "amount",
          "type": "uint256"
        }
      ],
      "name": "TipsSent",
      "type": "event"
    },
    {
      "inputs": [
        {
          "internalType": "address",
          "name": "",
          "type": "address"
        }
      ],
      "name": "balances",
      "outputs": [
        {
          "internalType": "uint256",
          "name": "",
          "type": "uint256"
        }
      ],
      "stateMutability": "view",
      "type": "function"
    },
    {
      "inputs": [
        {
          "internalType": "address",
          "name": "wallet",
          "type": "address"
        }
      ],
      "name": "getBalance",
      "outputs": [
        {
          "internalType": "uint256",
          "name": "",
          "type": "uint256"
        }
      ],
      "stateMutability": "view",
      "type": "function"
    },
    {
      "inputs": [],
      "name": "initialize",
      "outputs": [],
      "stateMutability": "nonpayable",
      "type": "function"
    },
    {
      "inputs": [],
      "name": "owner",
      "outputs": [
        {
          "internalType": "address",
          "name": "",
          "type": "address"
        }
      ],
      "stateMutability": "view",
      "type": "function"
    },
    {
      "inputs": [],
      "name": "pushLimit",
      "outputs": [
        {
          "internalType": "uint8",
          "name": "",
          "type": "uint8"
        }
      ],
      "stateMutability": "view",
      "type": "function"
    },
    {
      "inputs": [
        {
          "internalType": "address payable[]",
          "name": "teamMembers",
          "type": "address[]"
        }
      ],
      "name": "pushTips",
      "outputs": [],
      "stateMutability": "payable",
      "type": "function"
    },
    {
      "inputs": [],
      "name": "renounceOwnership",
      "outputs": [],
      "stateMutability": "nonpayable",
      "type": "function"
    },
    {
      "inputs": [
        {
          "internalType": "address payable[]",
          "name": "teamMembers",
          "type": "address[]"
        }
      ],
      "name": "sendTips",
      "outputs": [],
      "stateMutability": "payable",
      "type": "function"
    },
    {
      "inputs": [
        {
          "internalType": "address",
          "name": "newOwner",
          "type": "address"
        }
      ],
      "name": "transferOwnership",
      "outputs": [],
      "stateMutability": "nonpayable",
      "type": "function"
    },
    {
      "inputs": [
        {
          "internalType": "uint8",
          "name": "value",
          "type": "uint8"
        }
      ],
      "name": "updatePushLimit",
      "outputs": [],
      "stateMutability": "nonpayable",
      "type": "function"
    },
    {
      "inputs": [],
      "name": "withdraw",
      "outputs": [],
      "stateMutability": "nonpayable",
      "type": "function"
    }
  ],
  "bytecode": "0x6080604052600a609860006101000a81548160ff021916908360ff16021790555034801561002c57600080fd5b50611a068061003c6000396000f3fe60806040526004361061009c5760003560e01c80638129fc1c116100645780638129fc1c146101515780638da5cb5b146101685780638ecd69d614610193578063e097d793146101be578063f2fde38b146101da578063f8b2cb4f146102035761009c565b806320aabc6b146100a157806327e235e3146100bd5780632efce967146100fa5780633ccfd60b14610123578063715018a61461013a575b600080fd5b6100bb60048036038101906100b69190610ee0565b610240565b005b3480156100c957600080fd5b506100e460048036038101906100df9190610f8b565b61045d565b6040516100f19190610fd1565b60405180910390f35b34801561010657600080fd5b50610121600480360381019061011c9190611025565b610475565b005b34801561012f57600080fd5b5061013861049b565b005b34801561014657600080fd5b5061014f6106a9565b005b34801561015d57600080fd5b506101666106bd565b005b34801561017457600080fd5b5061017d6107fb565b60405161018a9190611061565b60405180910390f35b34801561019f57600080fd5b506101a8610825565b6040516101b5919061108b565b60405180910390f35b6101d860048036038101906101d39190610ee0565b610838565b005b3480156101e657600080fd5b5061020160048036038101906101fc9190610f8b565b610ae1565b005b34801561020f57600080fd5b5061022a60048036038101906102259190610f8b565b610b64565b6040516102379190610fd1565b60405180910390f35b60008282905011610286576040517f08c379a000000000000000000000000000000000000000000000000000000000815260040161027d90611129565b60405180910390fd5b600034116102c9576040517f08c379a00000000000000000000000000000000000000000000000000000000081526004016102c090611195565b60405180910390fd5b6000609954346102d991906111e4565b905060006102f38484905083610bad90919063ffffffff16565b905061030b8484905083610bc390919063ffffffff16565b60998190555060005b8484905081101561041b57600082905061039d816097600089898781811061033f5761033e611218565b5b90506020020160208101906103549190611285565b73ffffffffffffffffffffffffffffffffffffffff1673ffffffffffffffffffffffffffffffffffffffff16815260200190815260200160002054610bd990919063ffffffff16565b609760008888868181106103b4576103b3611218565b5b90506020020160208101906103c99190611285565b73ffffffffffffffffffffffffffffffffffffffff1673ffffffffffffffffffffffffffffffffffffffff16815260200190815260200160002081905550508080610413906112b2565b915050610314565b507f7957c203831da061fcff96a426b6732c4dbbf0a0e8db558c74a241a2f60df1ec84848460405161044f939291906113bd565b60405180910390a150505050565b60976020528060005260406000206000915090505481565b61047d610bef565b80609860006101000a81548160ff021916908360ff16021790555050565b6104a3610c6d565b6000609760003373ffffffffffffffffffffffffffffffffffffffff1673ffffffffffffffffffffffffffffffffffffffff1681526020019081526020016000205490506000811161052a576040517f08c379a00000000000000000000000000000000000000000000000000000000081526004016105219061143b565b60405180910390fd5b6000609760003373ffffffffffffffffffffffffffffffffffffffff1673ffffffffffffffffffffffffffffffffffffffff1681526020019081526020016000208190555060003373ffffffffffffffffffffffffffffffffffffffff16826040516105959061148c565b60006040518083038185875af1925050503d80600081146105d2576040519150601f19603f3d011682016040523d82523d6000602084013e6105d7565b606091505b505090508061061b576040517f08c379a0000000000000000000000000000000000000000000000000000000008152600401610612906114ed565b60405180910390fd5b6000609760003373ffffffffffffffffffffffffffffffffffffffff1673ffffffffffffffffffffffffffffffffffffffff168152602001908152602001600020541461069d576040517f08c379a000000000000000000000000000000000000000000000000000000000815260040161069490611559565b60405180910390fd5b50506106a7610cbc565b565b6106b1610bef565b6106bb6000610cc6565b565b60008060019054906101000a900460ff161590508080156106ee5750600160008054906101000a900460ff1660ff16105b8061071b57506106fd30610d8c565b15801561071a5750600160008054906101000a900460ff1660ff16145b5b61075a576040517f08c379a0000000000000000000000000000000000000000000000000000000008152600401610751906115eb565b60405180910390fd5b60016000806101000a81548160ff021916908360ff1602179055508015610797576001600060016101000a81548160ff0219169083151502179055505b61079f610daf565b80156107f85760008060016101000a81548160ff0219169083151502179055507f7f26b83ff96e1f2b6a682f133852f6798a09c465da95921460cefb384740249860016040516107ef9190611650565b60405180910390a15b50565b6000603360009054906101000a900473ffffffffffffffffffffffffffffffffffffffff16905090565b609860009054906101000a900460ff1681565b6000828290501161087e576040517f08c379a000000000000000000000000000000000000000000000000000000000815260040161087590611129565b60405180910390fd5b600034116108c1576040517f08c379a00000000000000000000000000000000000000000000000000000000081526004016108b890611195565b60405180910390fd5b81819050609860009054906101000a900460ff1660ff161015610919576040517f08c379a0000000000000000000000000000000000000000000000000000000008152600401610910906116b7565b60405180910390fd5b60006099543461092991906111e4565b905060006109438484905083610bad90919063ffffffff16565b905061095b8484905083610bc390919063ffffffff16565b60998190555060005b84849050811015610a9f576000829050804710156109b7576040517f08c379a00000000000000000000000000000000000000000000000000000000081526004016109ae90611723565b60405180910390fd5b60008686848181106109cc576109cb611218565b5b90506020020160208101906109e19190611285565b73ffffffffffffffffffffffffffffffffffffffff1682604051610a049061148c565b60006040518083038185875af1925050503d8060008114610a41576040519150601f19603f3d011682016040523d82523d6000602084013e610a46565b606091505b5050905080610a8a576040517f08c379a0000000000000000000000000000000000000000000000000000000008152600401610a81906114ed565b60405180910390fd5b50508080610a97906112b2565b915050610964565b507f9b6cd3d787c5da9c853098bbdaaf985bec9077136f1719adf8471b22450bc37a848484604051610ad3939291906113bd565b60405180910390a150505050565b610ae9610bef565b600073ffffffffffffffffffffffffffffffffffffffff168173ffffffffffffffffffffffffffffffffffffffff1603610b58576040517f08c379a0000000000000000000000000000000000000000000000000000000008152600401610b4f906117b5565b60405180910390fd5b610b6181610cc6565b50565b6000609760008373ffffffffffffffffffffffffffffffffffffffff1673ffffffffffffffffffffffffffffffffffffffff168152602001908152602001600020549050919050565b60008183610bbb9190611804565b905092915050565b60008183610bd19190611835565b905092915050565b60008183610be791906111e4565b905092915050565b610bf7610e08565b73ffffffffffffffffffffffffffffffffffffffff16610c156107fb565b73ffffffffffffffffffffffffffffffffffffffff1614610c6b576040517f08c379a0000000000000000000000000000000000000000000000000000000008152600401610c62906118b2565b60405180910390fd5b565b600260655403610cb2576040517f08c379a0000000000000000000000000000000000000000000000000000000008152600401610ca99061191e565b60405180910390fd5b6002606581905550565b6001606581905550565b6000603360009054906101000a900473ffffffffffffffffffffffffffffffffffffffff16905081603360006101000a81548173ffffffffffffffffffffffffffffffffffffffff021916908373ffffffffffffffffffffffffffffffffffffffff1602179055508173ffffffffffffffffffffffffffffffffffffffff168173ffffffffffffffffffffffffffffffffffffffff167f8be0079c531659141344cd1fd0a4f28419497f9722a3daafe3b4186f6b6457e060405160405180910390a35050565b6000808273ffffffffffffffffffffffffffffffffffffffff163b119050919050565b600060019054906101000a900460ff16610dfe576040517f08c379a0000000000000000000000000000000000000000000000000000000008152600401610df5906119b0565b60405180910390fd5b610e06610e10565b565b600033905090565b600060019054906101000a900460ff16610e5f576040517f08c379a0000000000000000000000000000000000000000000000000000000008152600401610e56906119b0565b60405180910390fd5b610e6f610e6a610e08565b610cc6565b565b600080fd5b600080fd5b600080fd5b600080fd5b600080fd5b60008083601f840112610ea057610e9f610e7b565b5b8235905067ffffffffffffffff811115610ebd57610ebc610e80565b5b602083019150836020820283011115610ed957610ed8610e85565b5b9250929050565b60008060208385031215610ef757610ef6610e71565b5b600083013567ffffffffffffffff811115610f1557610f14610e76565b5b610f2185828601610e8a565b92509250509250929050565b600073ffffffffffffffffffffffffffffffffffffffff82169050919050565b6000610f5882610f2d565b9050919050565b610f6881610f4d565b8114610f7357600080fd5b50565b600081359050610f8581610f5f565b92915050565b600060208284031215610fa157610fa0610e71565b5b6000610faf84828501610f76565b91505092915050565b6000819050919050565b610fcb81610fb8565b82525050565b6000602082019050610fe66000830184610fc2565b92915050565b600060ff82169050919050565b61100281610fec565b811461100d57600080fd5b50565b60008135905061101f81610ff9565b92915050565b60006020828403121561103b5761103a610e71565b5b600061104984828501611010565b91505092915050565b61105b81610f4d565b82525050565b60006020820190506110766000830184611052565b92915050565b61108581610fec565b82525050565b60006020820190506110a0600083018461107c565b92915050565b600082825260208201905092915050565b7f4d7573742068617665206174206c65617374206f6e65207465616d206d656d6260008201527f6572000000000000000000000000000000000000000000000000000000000000602082015250565b60006111136022836110a6565b915061111e826110b7565b604082019050919050565b6000602082019050818103600083015261114281611106565b9050919050565b7f4d7573742073656e6420736f6d65204554480000000000000000000000000000600082015250565b600061117f6012836110a6565b915061118a82611149565b602082019050919050565b600060208201905081810360008301526111ae81611172565b9050919050565b7f4e487b7100000000000000000000000000000000000000000000000000000000600052601160045260246000fd5b60006111ef82610fb8565b91506111fa83610fb8565b9250828201905080821115611212576112116111b5565b5b92915050565b7f4e487b7100000000000000000000000000000000000000000000000000000000600052603260045260246000fd5b600061125282610f2d565b9050919050565b61126281611247565b811461126d57600080fd5b50565b60008135905061127f81611259565b92915050565b60006020828403121561129b5761129a610e71565b5b60006112a984828501611270565b91505092915050565b60006112bd82610fb8565b91507fffffffffffffffffffffffffffffffffffffffffffffffffffffffffffffffff82036112ef576112ee6111b5565b5b600182019050919050565b600082825260208201905092915050565b6000819050919050565b61131e81611247565b82525050565b60006113308383611315565b60208301905092915050565b600061134b6020840184611270565b905092915050565b6000602082019050919050565b600061136c83856112fa565b93506113778261130b565b8060005b858110156113b05761138d828461133c565b6113978882611324565b97506113a283611353565b92505060018101905061137b565b5085925050509392505050565b600060408201905081810360008301526113d8818587611360565b90506113e76020830184610fc2565b949350505050565b7f4e6f2062616c616e636520746f20776974686472617700000000000000000000600082015250565b60006114256016836110a6565b9150611430826113ef565b602082019050919050565b6000602082019050818103600083015261145481611418565b9050919050565b600081905092915050565b50565b600061147660008361145b565b915061148182611466565b600082019050919050565b600061149782611469565b9150819050919050565b7f4661696c656420746f2073656e64204554480000000000000000000000000000600082015250565b60006114d76012836110a6565b91506114e2826114a1565b602082019050919050565b60006020820190508181036000830152611506816114ca565b9050919050565b7f4661696c656420746f207a65726f206f75742062616c616e6365000000000000600082015250565b6000611543601a836110a6565b915061154e8261150d565b602082019050919050565b6000602082019050818103600083015261157281611536565b9050919050565b7f496e697469616c697a61626c653a20636f6e747261637420697320616c72656160008201527f647920696e697469616c697a6564000000000000000000000000000000000000602082015250565b60006115d5602e836110a6565b91506115e082611579565b604082019050919050565b60006020820190508181036000830152611604816115c8565b9050919050565b6000819050919050565b6000819050919050565b600061163a6116356116308461160b565b611615565b610fec565b9050919050565b61164a8161161f565b82525050565b60006020820190506116656000830184611641565b92915050565b7f596f75206861766520746f6f206d756368207465616d206d656d626572730000600082015250565b60006116a1601e836110a6565b91506116ac8261166b565b602082019050919050565b600060208201905081810360008301526116d081611694565b9050919050565b7f496e73756666696369656e7420636f6e74726163742062616c616e6365000000600082015250565b600061170d601d836110a6565b9150611718826116d7565b602082019050919050565b6000602082019050818103600083015261173c81611700565b9050919050565b7f4f776e61626c653a206e6577206f776e657220697320746865207a65726f206160008201527f6464726573730000000000000000000000000000000000000000000000000000602082015250565b600061179f6026836110a6565b91506117aa82611743565b604082019050919050565b600060208201905081810360008301526117ce81611792565b9050919050565b7f4e487b7100000000000000000000000000000000000000000000000000000000600052601260045260246000fd5b600061180f82610fb8565b915061181a83610fb8565b92508261182a576118296117d5565b5b828204905092915050565b600061184082610fb8565b915061184b83610fb8565b92508261185b5761185a6117d5565b5b828206905092915050565b7f4f776e61626c653a2063616c6c6572206973206e6f7420746865206f776e6572600082015250565b600061189c6020836110a6565b91506118a782611866565b602082019050919050565b600060208201905081810360008301526118cb8161188f565b9050919050565b7f5265656e7472616e637947756172643a207265656e7472616e742063616c6c00600082015250565b6000611908601f836110a6565b9150611913826118d2565b602082019050919050565b60006020820190508181036000830152611937816118fb565b9050919050565b7f496e697469616c697a61626c653a20636f6e7472616374206973206e6f74206960008201527f6e697469616c697a696e67000000000000000000000000000000000000000000602082015250565b600061199a602b836110a6565b91506119a58261193e565b604082019050919050565b600060208201905081810360008301526119c98161198d565b905091905056fea2646970667358221220ccb9b0a5dc619c75dfc95b129ea7d844fa82e02c57e012b3e3aff651b25c0f1964736f6c63430008120033",
  "linkReferences": {},
  "deployedLinkReferences": {}
}